:020000040800F2
:1000000000000320F91400081D0700081F0700085E
:10001000210700082307000825070008000000004A
:10002000000000000000000000000000270700089A
:1000300029070008000000002B0700082D07000812
:100040004915000849150008491500084915000818
:100050004915000849150008491500084915000808
:1000600049150008491500084915000849150008F8
:1000700049150008491500084915000849150008E8
:1000800049150008491500084915000849150008D8
:1000900049150008491500084915000849150008C8
:1000A00049150008491500084915000849150008B8
:1000B00049150008491500084915000849150008A8
:1000C0004915000849150008491500084915000898
:1000D0004915000849150008491500084915000888
:1000E0004915000849150008491500084915000878
:1000F0004915000849150008491500084915000868
:100100004915000849150008491500084915000857
:100110004915000849150008491500084915000847
:100120004915000849150008491500084915000837
:100130004915000849150008491500084915000827
:100140004915000849150008491500084915000817
:100150004915000849150008491500084915000807
:1001600049150008491500084915000849150008F7
:10017000491500084915000849150008000000004D
:1001800049150008491500084915000849150008D7
:1001900049150008491500084915000849150008C7
:0C01A00049150008491500084915000821
:1001AC0010B5054C237833B9044B13B10448AFF3A5
:1001BC0000800123237010BD0C0000200000000003
:1001CC00A415000808B5034B1BB103490348AFF352
:1001DC00008008BD0000000010000020A4150008DD
:1001EC0053B94AB9002908BF00281CBF4FF0FF3192
:1001FC004FF0FF3000F074B9ADF1080C6DE904CE8E
:10020C0000F006F8DDF804E0DDE9022304B07047E5
:10021C002DE9F047089D04468E46002B4DD18A42AD
:10022C00944669D9B2FA82F252B101FA02F3C2F1E0
:10023C00200120FA01F10CFA02FC41EA030E944071
:10024C004FEA1C48210CBEFBF8F61FFA8CF708FB92
:10025C0016E341EA034306FB07F199420AD91CEB6A
:10026C00030306F1FF3080F01F81994240F21C819C
:10027C00023E63445B1AA4B2B3FBF8F008FB1033E4
:10028C0044EA034400FB07F7A7420AD91CEB040419
:10029C0000F1FF3380F00A81A74240F207816444E9
:1002AC00023840EA0640E41B00261DB1D44000236E
:1002BC00C5E900433146BDE8F0878B4209D9002DD2
:1002CC0000F0EF800026C5E9000130463146BDE85C
:1002DC00F087B3FA83F6002E4AD18B4202D38242C6
:1002EC0000F2F980841A61EB030301209E46002D75
:1002FC00E0D0C5E9004EDDE702B9FFDEB2FA82F2CA
:10030C00002A40F09280A1EB0C014FEA1C471FFA27
:10031C008CFE0126200CB1FBF7F307FB131140EA0E
:10032C0001410EFB03F0884208D91CEB010103F1DB
:10033C00FF3802D2884200F2CB804346091AA4B29D
:10034C00B1FBF7F007FB101144EA01440EFB00FE71
:10035C00A64508D91CEB040400F1FF3102D2A645D6
:10036C0000F2BB800846A4EB0E0440EA03409CE775
:10037C00C6F12007B34022FA07FC4CEA030C20FA22
:10038C0007F401FA06F31C43F9404FEA1C4900FA42
:10039C0006F3B1FBF9F8200C1FFA8CFE09FB1811BF
:1003AC0040EA014108FB0EF0884202FA06F20BD932
:1003BC001CEB010108F1FF3A80F08880884240F282
:1003CC008580A8F102086144091AA4B2B1FBF9F0C6
:1003DC0009FB101144EA014100FB0EFE8E4508D9C1
:1003EC001CEB010100F1FF346CD28E456AD9023846
:1003FC00614440EA0840A0FB0294A1EB0E01A1422B
:10040C00C846A64656D353D05DB1B3EB080261EB98
:10041C000E0101FA07F722FA06F3F1401F43C5E972
:10042C00007100263146BDE8F087C2F12003D840A8
:10043C000CFA02FC21FA03F3914001434FEA1C47EA
:10044C001FFA8CFEB3FBF7F007FB10360B0C43EADC
:10045C00064300FB0EF69E4204FA02F408D91CEB8C
:10046C00030300F1FF382FD29E422DD9023863448A
:10047C009B1B89B2B3FBF7F607FB163341EA03412A
:10048C0006FB0EF38B4208D91CEB010106F1FF3879
:10049C0016D28B4214D9023E6144C91A46EA004670
:1004AC0038E72E46284605E70646E3E61846F8E602
:1004BC004B45A9D2B9EB020864EB0C0E0138A3E74B
:1004CC004646EAE7204694E74046D1E7D0467BE72C
:1004DC00023B614432E7304609E76444023842E7A4
:1004EC00704700BF72B6FEE700B595B03022002110
:1004FC0008A801F049F8002303930493059306938D
:10050C0007930193234A116C41F080511164126CD2
:10051C0002F080520192019A02931F4B1A6842F426
:10052C0040421A601B6803F440430293029B012370
:10053C0008934FF48033099302230E934FF48002F7
:10054C000F920F221092D82211921293042313931C
:10055C0008A800F097FAB0B900F0BCFEA8B90F23B8
:10056C00039302230493002305934FF4A0530693A3
:10057C004FF480530793052103A800F0D1FC30B948
:10058C0015B05DF804FBFFF7ADFFFFF7ABFFFFF70E
:10059C00A9FF00BF003802400070004008B500F011
:1005AC005BFFFFF7A1FF00F023F800F05DF80D4CA6
:1005BC0001221146204600F087FE4FF4FA7000F03D
:1005CC0077FF00220121204600F07EFE4FF4FA70E6
:1005DC0000F06EFF4FF47A730D220349034800F0CC
:1005EC00EAF9E4E700040240BC15000828000020EA
:1005FC0030B589B0002403940494059406940794B0
:10060C000094174B1A6B42F080021A631A6B02F0BB
:10061C0080020092009A01941A6B42F002021A6353
:10062C001A6B02F002020192019A02941A6B42F0C8
:10063C0001021A631B6B03F001030293029B094D29
:10064C0001221146284600F03FFE01230393049338
:10065C000594069303A9284600F038FD09B030BD77
:10066C00003802400004024008B50A480A4B0360F7
:10067C004FF4E133436000238360C36003610C22B9
:10068C0042618361C36100F066F900B908BDFFF7F0
:10069C0029FFFBE7280000200010014000B589B0BD
:1006AC00002303930493059306930793026803F1C5
:1006BC00804303F588339A4202D009B05DF804FBFD
:1006CC000021019103F594335A6C42F010025A64E4
:1006DC005A6C02F010020192019A02911A6B42F0CC
:1006EC0001021A631B6B03F001030293029B4FF48C
:1006FC00C0630393022304930323069307230793F6
:10070C0003A9024800F0E2FCD7E700BF000002405A
:10071C00FEE7FEE7FEE7FEE7FEE77047704770472F
:10072C0008B500F0B3FE08BD82B0002100910B4B60
:10073C005A6C42F480425A645A6C02F48042009221
:10074C00009A01911A6C42F080521A641B6C03F0EF
:10075C0080530193019B02B0704700BF00380240E8
:10076C00026802F10C0353E8003F23F490730C323F
:10077C0042E800310029F3D1026802F1140353E876
:10078C00003F23F00103143242E800310029F3D179
:10079C00036B012B05D0202380F842300023036328
:1007AC007047026802F10C0353E8003F23F010037A
:1007BC000C3242E800310029F3D1ECE738B504469D
:1007CC000268136923F44053C1680B4313618368B7
:1007DC000269134342691343C2691A430168CB6827
:1007EC0023F4164323F00C031343CB6002685369C4
:1007FC0023F4407381690B4353610368314A93427C
:10080C0006D002F58062934202D000F03FFC01E07A
:10081C0000F04CFCE369B3F5004F29D0002103181C
:10082C0049411B1841F10001C90041EA5371DB0039
:10083C00181863684FEA83024FEA937341F1000181
:10084C00FFF7CEFC204DA5FB00325109642303FBBE
:10085C0011031B013233A5FB03235B0903F0F002E8
:10086C0002EB011203F00F03216813448B6038BDB7
:10087C000023021843EB0301121841F10001C900D7
:10088C0041EA5271D200101841F1000162689218CD
:10089C005B41FFF7A5FC0C4DA5FB0032510964230D
:1008AC0003FB1103DB003233A5FB03235B095A0066
:1008BC0002F4F87202EB011203F0070321681344EF
:1008CC008B60D4E7001001401F85EB512DE9F043FC
:1008DC0083B005460E4617469946DDF828802C68ED
:1008EC00246836EA04030CBF4FF0010C4FF0000CE7
:1008FC00BC4528D1B8F1FF3FF1D000F0D3FDA0EBFF
:10090C000900404523D8B8F1000F22D02B68DA68D3
:10091C0012F0040FE3D0802EE1D0402EDFD01A6805
:10092C0012F0080FDBD0002401941A6801925B6866
:10093C000193019B2846FFF713FF08236B6485F88E
:10094C004040012000E0002003B0BDE8F08303200C
:10095C00FAE70320F8E760B310B5044690F841308D
:10096C0013B3242384F841302268D36823F4005352
:10097C00D3602046FFF722FF2268136923F49043CB
:10098C0013612268536923F02A0353612268D368E8
:10099C0043F40053D36000206064202384F841307A
:1009AC0084F84230606310BD80F84030FFF776FE6B
:1009BC00D7E7012070472DE9F04182B01E4690F830
:1009CC004130DBB2202B56D104460D46904600290F
:1009DC0055D00AB901204FE000234364212380F84D
:1009EC00413000F05FFD0746A4F82480A4F826806F
:1009FC00A368B3F5805F02D04FF0000814E02369C0
:100A0C002BB34FF000080FE0202384F84130032073
:100A1C0032E038F8023B2268C3F308035360E28CDF
:100A2C0092B2013A92B2E284E38C9BB293B10096FB
:100A3C003B46002280212046FFF748FF0028E3D1E7
:100A4C00002DE6D015F8012B23685A60E7E7A8467D
:100A5C000025E9E700963B46002240212046FFF79F
:100A6C0035FF18B9202384F8413005E0202384F8A1
:100A7C004130032000E0022002B0BDE8F0810120EB
:100A8C00FAE70000002800F0E08170B582B004465F
:100A9C00036813F0010F3BD09F4B9B6803F00C03D2
:100AAC00042B2CD09C4B9B6803F00C03082B21D0FF
:100ABC006368B3F5803F4FD0B3F5A02F52D0964B5F
:100ACC001A6822F480321A601A6822F480221A60A2
:100ADC006368002B50D000F0E5FC05468E4B1B687C
:100AEC0013F4003F14D100F0DDFC401B6428F5D951
:100AFC000320B1E1884B5B6813F4800FD8D0864B90
:100B0C001B6813F4003F03D06368002B00F09F8137
:100B1C00236813F0020F54D07F4B9B6813F00C0F1B
:100B2C003ED07D4B9B6803F00C03082B33D0E3685D
:100B3C00002B68D0794B01221A6000F0B3FC0546FB
:100B4C00754B1B6813F0020F54D100F0ABFC401B2B
:100B5C000228F5D903207FE16F4A136843F48033F0
:100B6C001360B5E76C4B1A6842F480221A601A685D
:100B7C0042F480321A60ABE700F094FC0546664BF9
:100B8C001B6813F4003FC3D000F08CFC401B64289E
:100B9C00F5D9032060E1604B5B6813F4800FC6D17C
:100BAC005D4B1B6813F0020F03D0E368012B40F080
:100BBC005081594A136823F0F803216943EAC103B1
:100BCC001360236813F0080F42D063696BB3534B67
:100BDC000122C3F8802E00F065FC05464E4B5B6F7E
:100BEC0013F0020F34D100F05DFC401B0228F5D944
:100BFC00032031E1484A136823F0F803216943EAE2
:100C0C00C1031360DDE7454B00221A6000F04AFC7B
:100C1C000546414B1B6813F0020FD2D000F042FC8A
:100C2C00401B0228F5D9032016E13C4B0022C3F8E7
:100C3C00802E00F037FC0546374B5B6F13F0020F2C
:100C4C0006D000F02FFC401B0228F5D9032003E14D
:100C5C00236813F0040F77D02F4B1B6C13F0805FBD
:100C6C0033D1002301932C4B1A6C42F080521A643E
:100C7C001B6C03F080530193019B0125284B1B68CF
:100C8C0013F4807F23D0A368012B34D0052B38D0EC
:100C9C00214B1A6F22F001021A671A6F22F004021C
:100CAC001A67A368002B3DD000F0FCFB06461A4BDC
:100CBC001B6F13F0020F46D100F0F4FB801B41F2C6
:100CCC0088339842F3D90320C6E00025D6E7144AAE
:100CDC00136843F48073136000F0E4FB0646104B7A
:100CEC001B6813F4807FCED100F0DCFB801B022844
:100CFC00F5D90320B0E0084A136F43F001031367E2
:100D0C00CFE7054B1A6F42F004021A671A6F42F0D4
:100D1C0001021A67C5E700BF0038024000004742D5
:100D2C000070004000F0BEFB0646524B1B6F13F0E8
:100D3C00020F08D000F0B6FB801B41F288339842BA
:100D4C00F3D9032088E0EDB9A369002B00F0838070
:100D5C00484A926802F00C02082A51D0022B17D094
:100D6C00454B00221A6600F09DFB0446414B1B6864
:100D7C0013F0007F42D000F095FB001B0228F5D940
:100D8C00032069E03B4A136C23F080531364DBE7C8
:100D9C00394B00221A6600F085FB0546354B1B6863
:100DAC0013F0007F06D000F07DFB401B0228F5D924
:100DBC00032051E0E369226A1343626A43EA821317
:100DCC00A26A5208013A43EA0243E26A43EA026326
:100DDC00284A5360284B01221A6600F063FB044634
:100DEC00244B1B6813F0007F06D100F05BFB001B4B
:100DFC000228F5D903202FE000202DE000202BE065
:100E0C00012B2BD01B4B5B6803F48001E2699142F0
:100E1C0026D103F03F02216A8A4223D1616A47F648
:100E2C00C0721A40B2EB811F1ED103F44031A26A8A
:100E3C005208013AB1EB024F18D103F07063E26A29
:100E4C00B3EB026F14D1002006E0012070470120A3
:100E5C0002E0012000E0002002B070BD0120FBE7A1
:100E6C000120F9E70120F7E70120F5E70120F3E77E
:100E7C000120F1E7003802400000474208B5254B3D
:100E8C009B6803F00C03042B3FD0082B3FD1214B64
:100E9C005A6802F03F025B6813F4800F12D01D4BAE
:100EAC005968C1F388111C480023A1FB0001FFF70E
:100EBC0097F9184B5B68C3F3014301335B00B0FB3C
:100ECC00F3F025E0134B5968C1F3881C4FEA4C1121
:100EDC00B1EB0C006EEB0E0E4FEA8E1343EA9063EF
:100EEC008101091A63EB0E03DB0043EA5173C9005D
:100EFC0011EB0C0C43F10003990200234FEA8C20F8
:100F0C0041EA9C51FFF76CF9D3E7034800E0034832
:100F1C0008BD00BF0038024040787D010024F40079
:100F2C00002800F09B8070B50D4604464F4B1B68A3
:100F3C0003F00F038B4208D2CBB24C4A13701368E8
:100F4C0003F00F038B4240F08B80236813F0020FE9
:100F5C0017D013F0040F04D0454A936843F4E053C0
:100F6C009360236813F0080F04D0414A936843F44C
:100F7C00604393603E4A936823F0F003A1680B43EF
:100F8C009360236813F0010F32D06368012B21D0DA
:100F9C009A1E012A25D9364A126812F0020F61D026
:100FAC0033498A6822F0030213438B6000F07AFA0B
:100FBC0006462F4B9B6803F00C036268B3EB820F61
:100FCC0016D000F06FFA801B41F288339842F0D9AA
:100FDC00032042E0264A126812F4003FE0D10120BF
:100FEC003BE0234A126812F0007FD9D1012034E093
:100FFC001E4B1B6803F00F03AB4207D9EAB21B4B25
:10100C001A701B6803F00F03AB422DD1236813F049
:10101C00040F06D0164A936823F4E053E1680B439F
:10102C009360236813F0080F07D0114A936823F4D8
:10103C006043216943EAC1039360FFF71FFF0C4B28
:10104C009B68C3F303130B4AD35CD8400A4B18605C
:10105C000A4B186800F0DAF9002070BD01207047C7
:10106C000120FAE70120F8E70120F6E7003C0240F6
:10107C0000380240CC1500080800002004000020B5
:10108C00014B1868704700BF0800002008B5FFF737
:10109C00F7FF044B9B68C3F38223034AD35CD8400D
:1010AC0008BD00BF00380240DC15000808B5FFF78A
:1010BC00E7FF044B9B68C3F34233034AD35CD8402D
:1010CC0008BD00BF00380240DC15000800230F2BC0
:1010DC0000F2F18070B582B061E085685E00032497
:1010EC00B44025EA0405CC68B4402C4384604568C0
:1010FC0025EA02054C68C4F300129A402A43426068
:10110C005BE0DC08083450F8246003F0070295001B
:10111C000F22AA4026EA020E0A69AA4042EA0E02EF
:10112C0040F824205DE0092200E0002202FA0EF2D1
:10113C002A430234604D45F82420604A94686FEAD3
:10114C000C0224EA0C054E6816F4801F01D04CEA00
:10115C0004055A4CA560E46802EA04054E6816F4CE
:10116C00001F01D04CEA0405544CE560646802EAA7
:10117C0004054E6816F4003F01D04CEA04054F4CB0
:10118C006560246822404D6815F4803F01D04CEA1C
:10119C0004024A4C226001330F2B00F28A80012298
:1011AC009A400C6804EA020C32EA0404F3D14C684D
:1011BC0004F00304013C012C8FD94A6802F00302AD
:1011CC00032A09D0C4685D000322AA4024EA020461
:1011DC008A68AA402243C2604A6802F00302022ACB
:1011EC008FD004684FEA430E032202FA0EF224EA6F
:1011FC0002044A6802F0030202FA0EF22243026071
:10120C004A6812F4403FC6D0002201922C4A546C1A
:10121C0044F480445464526C02F480420192019A6A
:10122C009C08A51C244A52F8255003F003024FEAEF
:10123C00820E0F2202FA0EF225EA0205214A904292
:10124C003FF473AF02F58062904222D002F58062C7
:10125C00904220D002F5806290421ED002F580624E
:10126C0090421CD002F5806290421AD002F5806246
:10127C00904218D002F58062904216D002F580623E
:10128C00904214D002F5806290423FF44CAF0A2297
:10129C004CE701224AE7022248E7032246E70422F0
:1012AC0044E7052242E7062240E707223EE70822F0
:1012BC003CE702B070BD704700380140003C014073
:1012CC0000380240000002400AB1816170470904F5
:1012DC008161704710B582B000230193194B1A6CD1
:1012EC0042F080521A641B6C03F080530193019BF3
:1012FC00154B01221A6400F0D5F80446134B5B68B9
:10130C0013F4803F08D100F0CDF8001BB0F57A7FC4
:10131C00F4D9032002B010BD0B4B01225A6400F02B
:10132C00C1F80446094B5B6813F4003F07D100F089
:10133C00B9F8001BB0F57A7FF4D90320EAE7002056
:10134C00E8E700BF0038024000000E420070004089
:10135C00074AD36823F4E0631B041B0C000200F45F
:10136C00E060034343F0BF6343F40033D360704742
:10137C0000ED00E000B5194BDB68C3F30223C3F1A9
:10138C00070CBCF1040F28BF4FF0040C03F1040E42
:10139C00BEF1060F18D9033B4FF0FF3E0EFA0CFCC2
:1013AC0021EA0C0199400EFA03F322EA03031943D4
:1013BC0000280BDB0901C9B200F1604000F5614067
:1013CC0080F800135DF804FB0023E5E700F00F0044
:1013DC000901C9B2024B1954F4E700BF00ED00E05B
:1013EC0014ED00E00138B0F1807F0BD24FF0E02318
:1013FC005861054AF02182F82310002098610722D9
:10140C001A6170470120704700ED00E010B50446EA
:10141C000E4B18784FF47A73B3FBF0F30C4A106848
:10142C00B0FBF3F0FFF7DEFF68B90F2C01D90120F8
:10143C000AE0002221464FF0FF30FFF79BFF054BDF
:10144C001C60002000E0012010BD00BF0000002047
:10145C00080000200400002008B50B4B1A6842F469
:10146C0000721A601A6842F480621A601A6842F4B8
:10147C0080721A600320FFF76BFF0F20FFF7C6FF87
:10148C00FFF752F9002008BD003C0240034A1168E6
:10149C00034B1B780B441360704700BF7000002097
:1014AC0000000020014B1868704700BF700000203E
:1014BC0038B50446FFF7F6FF0546B4F1FF3F02D0FE
:1014CC00044B1B781C44FFF7EDFF401BA042FAD3E2
:1014DC0038BD00BF00000020034AD2F8883043F426
:1014EC007003C2F88830704700ED00E0DFF834D0AC
:1014FC00FFF7F2FF0C480D490D4A002302E0D458C7
:10150C00C4500433C4188C42F9D30A4A0A4C002341
:10151C0001E013600432A242FBD300F011F8FFF794
:10152C003DF8704700000320000000200C00002054
:10153C00F41500080C00002074000020FEE70000E9
:10154C0070B50D4D0D4C641BA4100026A64209D19C
:10155C000B4D0C4C00F020F8641BA4100026A64286
:10156C0005D170BD55F8043B98470136EEE755F8A8
:10157C00043B98470136F2E7EC150008EC1500081F
:10158C00EC150008F015000802440346934200D104
:10159C00704703F8011BF9E7F8B500BFF8BC08BCAD
:1015AC009E467047F8B500BFF8BC08BC9E46704715
:1015BC0048656C6C6F20576F726C640D0A000000EC
:1015CC0000000000000000000102030406070809E7
:0815DC000000000001020304FD
:0815E40038ECFF7F010000005C
:0415EC00D101000821
:0415F000AD01000841
:0C15F40001000000100000000024F400C2
:04000005080014F9E2
:00000001FF
